{
  "abi": [
    {
      "inputs": [],
      "stateMutability": "nonpayable",
      "type": "constructor"
    },
    {
      "anonymous": false,
      "inputs": [
        {
          "indexed": true,
          "internalType": "address",
          "name": "previousOwner",
          "type": "address"
        },
        {
          "indexed": true,
          "internalType": "address",
          "name": "newOwner",
          "type": "address"
        }
      ],
      "name": "OwnershipTransferred",
      "type": "event"
    },
    {
      "inputs": [],
      "name": "owner",
      "outputs": [
        {
          "internalType": "address",
          "name": "",
          "type": "address"
        }
      ],
      "stateMutability": "view",
      "type": "function"
    },
    {
      "inputs": [],
      "name": "proxyAddress",
      "outputs": [
        {
          "internalType": "address",
          "name": "",
          "type": "address"
        }
      ],
      "stateMutability": "view",
      "type": "function"
    },
    {
      "inputs": [],
      "name": "readDataFeed",
      "outputs": [
        {
          "internalType": "uint256",
          "name": "",
          "type": "uint256"
        },
        {
          "internalType": "uint256",
          "name": "",
          "type": "uint256"
        }
      ],
      "stateMutability": "view",
      "type": "function"
    },
    {
      "inputs": [],
      "name": "renounceOwnership",
      "outputs": [],
      "stateMutability": "nonpayable",
      "type": "function"
    },
    {
      "inputs": [
        {
          "internalType": "address",
          "name": "_proxyAddress",
          "type": "address"
        }
      ],
      "name": "setProxyAddress",
      "outputs": [],
      "stateMutability": "nonpayable",
      "type": "function"
    },
    {
      "inputs": [
        {
          "internalType": "address",
          "name": "newOwner",
          "type": "address"
        }
      ],
      "name": "transferOwnership",
      "outputs": [],
      "stateMutability": "nonpayable",
      "type": "function"
    }
  ],
  "bytecode": {
    "object": "0x608060405234801561001057600080fd5b5061001a3361001f565b61006f565b600080546001600160a01b038381166001600160a01b0319831681178455604051919092169283917f8be0079c531659141344cd1fd0a4f28419497f9722a3daafe3b4186f6b6457e09190a35050565b6103a38061007e6000396000f3fe608060405234801561001057600080fd5b50600436106100625760003560e01c806323f5c02d1461006757806346a7dadc14610097578063715018a6146100ac57806380eb9be6146100b45780638da5cb5b146100d1578063f2fde38b146100e2575b600080fd5b60015461007a906001600160a01b031681565b6040516001600160a01b0390911681526020015b60405180910390f35b6100aa6100a53660046102f4565b6100f5565b005b6100aa61011f565b6100bc610133565b6040805192835260208301919091520161008e565b6000546001600160a01b031661007a565b6100aa6100f03660046102f4565b6101cc565b6100fd61024a565b600180546001600160a01b0319166001600160a01b0392909216919091179055565b61012761024a565b61013160006102a4565b565b600080600080600160009054906101000a90046001600160a01b03166001600160a01b03166357de26a46040518163ffffffff1660e01b81526004016040805180830381865afa15801561018b573d6000803e3d6000fd5b505050506040513d601f19601f820116820180604052508101906101af9190610324565b6001600160e01b039091169563ffffffff91909116945092505050565b6101d461024a565b6001600160a01b03811661023e5760405162461bcd60e51b815260206004820152602660248201527f4f776e61626c653a206e6577206f776e657220697320746865207a65726f206160448201526564647265737360d01b60648201526084015b60405180910390fd5b610247816102a4565b50565b6000546001600160a01b031633146101315760405162461bcd60e51b815260206004820181905260248201527f4f776e61626c653a2063616c6c6572206973206e6f7420746865206f776e65726044820152606401610235565b600080546001600160a01b038381166001600160a01b0319831681178455604051919092169283917f8be0079c531659141344cd1fd0a4f28419497f9722a3daafe3b4186f6b6457e09190a35050565b60006020828403121561030657600080fd5b81356001600160a01b038116811461031d57600080fd5b9392505050565b6000806040838503121561033757600080fd5b825180601b0b811461034857600080fd5b602084015190925063ffffffff8116811461036257600080fd5b80915050925092905056fea26469706673582212206a767e645985c13f464e959aa202680bf601336cf6cea0b2d9d627984b277ded64736f6c63430008130033",
    "linkReferences": {}
  },
  "methodIdentifiers": {
    "owner()": "8da5cb5b",
    "proxyAddress()": "23f5c02d",
    "readDataFeed()": "80eb9be6",
    "renounceOwnership()": "715018a6",
    "setProxyAddress(address)": "46a7dadc",
    "transferOwnership(address)": "f2fde38b"
  },
  "id": 1
}